S0190000454570726F6D5465737432344C433235362E7372656391
S113000060080020950100009101000091010000AA
S113001000000000000000000000000000000000DC
S1130020000000000000000000000000910100003A
S11300300000000000000000910100009101000098
S11300409101000091010000910100009101000064
S113005091010000910100009101000000000000E6
S113006091010000910100009101000000000000D6
S113007000000000910100009101000091010000C6
S113008000000000000000009101000010B5064CC3
S11300902378002B07D1054B002B02D0044800E045
S11300A000BF0123237010BD4004002000000000A5
S11300B00807000008B5084B002B03D0074808497F
S11300C000E000BF07480368002B00D108BD064BC1
S11300D0002BFBD09847F9E7000000000807000058
S11300E0440400200807000000000000204A116AB0
S11300F0204B0B401362204A53688021C9020B43F2
S1130100536000221D4B9A601A1C53785BB2002B7B
S1130110FBDB83225202194B5A601A1C53785BB2E0
S1130120002BFBDB0022154B9A601A1C53785BB240
S1130130002BFBDB124A114B5A601A1C53785BB23A
S1130140002BFBDB0D4A51880E4B0B435380537835
S11301505BB2002BFBDB0C4A084B5A801A1C537809
S11301605BB2002BFBDB0C22084B1A627047C046C3
S113017000080040FFFCFFFF00400041000C00406D
S1130180010601000E4000000F4100000004004081
S1130190FEE7C04610B52B4B2B4A9A4203D02B4B9B
S11301A0284A9A4204D32A4B2A4A9A4210D31EE080
S11301B0294A264B03339B1A9B0801339B000022D8
S11301C0204821498C58845004329A42FAD1EAE7F3
S11301D0224A1F4B03339B1A9B0801339B000022C6
S11301E01C4800211418216004329A42FAD11C4A96
S11301F0FF211C4B8B439360FD3990235B001A4A0B
S1130200D1501A4B9A7B2E318A43111C20220A4367
S11302109A739A7B0C218A43111C08220A439A730D
S11302209A7B03218A43111C02220A439A73104ABF
S1130230516880230B4353600E4B98470E4B9847ED
S1130240FEE7C0460000002008070000400400202C
S11302505C0400204004002004000020440400202A
S113026000ED00E000000000007000410048004183
S1130270004000416505000065040000014A024B8E
S11302801A60704740420F000000002070B5040C53
S1130290E2B21F2313406409E1B2C9010D4CA44624
S11302A06144CC18403426780125354325705B0819
S11302B0CB1830331C7801210A4091000F228A4068
S11302C094431C701A780004000C88400243D2B294
S11302D01A7070BD0044004138B5041C0E480F4D1F
S11302E0A8470F48A8472268012313432360A0238B
S11302F0E360E369002BFCD10A4A0B4B1A6001222C
S1130300E3695B081A42FBD1628B102313436383B6
S1130310E369002BFCD138BD02000E008D02000001
S113032002000F00160030000008004243688022DB
S1130330920213434360704770B5520001231A437D
S11303404262438B5B0706D54368C0229202134383
S1130350436000201DE043689B0C9B0443600C1C1D
S1130360CE1C28250222435D2370037E1342FCD059
S11303700134B442F7D143688022D202134343606C
S11303804368C0229202134343602823C35CCB70AA
S1130390087870BDF0B5A023436201240425C0266B
S11303A0B60205E0438B2B4202D0436833434360DB
S11303B0037E2342F6D043689B0C9B044360D31E08
S11303C0002B0ADD1F1C0025282601248155037EED
S11303D02342FCD00135BD42F8D1002A0CD0436839
S11303E08022D202134343604368C0229202134323
S11303F0436000222823C254F0BDC04610B5A02497
S11304000C4317480322438B1B091340012B04D0D0
S1130410438B1B091340022BF5D1114B5C6200295D
S113042010D1191C01220B7E1A42FCD010E00B7E65
S11304301A4209D00A4A5368C02189020B43536007
S113044000200BE0064901220B7E5B081A42EED025
S1130450034B588B4007C00F0123584010BDC046C2
S11304600008004270B582B0124B9847124B98476F
S1130470124B9847124C201C124B984750200121D4
S1130480114B9847002500950195201CDE2104227C
S113049050230E4EB0470095201C0D4950220023D6
S11304A00C4DA847201C0C4B98470C480C4B984704
S11304B0FEE7C0467D020000ED00000025050000B7
S11304C000080042D9020000FD030000950300006B
S11304D05C040020390300002D0300000400002008
S11304E0FD040000044901220B7E1A42FCD080B2B4
S11304F0014B18857047C046000C0042F8B50378DC
S1130500002B0CD0051C041C054F01231E1A207857
S1130510C0B2B847A4192C192378002BF7D1F8BD21
S1130520E504000010B50948094CA0470948A04754
S1130530094B0A4A1A60C02292025A60084A9A81F8
S1130540196802220A431A6010BDC046020019004D
S11305508D02000002001800000C0042040031402B
S113056004C5FFFF70B50D4E0D4D0024AD1BAD103D
S113057005D0A300F35801349847A542F9D100F0FF
S1130580B1F8084E084D0024AD1BAD1005D0A300F2
S1130590F35801349847A542F9D170BDF006000024
S11305A0F0060000F0060000F806000008B5034B52
S11305B0002B02D0024800F005F808BD000000003E
S11305C0D505000008B5011C00220020002300F01E
S11305D01BF808BD38B5094B094CE41AA41009D01E
S11305E0084AA518AD00ED182B68013C9847043D56
S11305F0002CF9D100F080F838BDC0460407000093
S113060008070000FFFFFF3FF8B544465F46564623
S11306104D469B462F4BF0B41C68A4235B00051C7D
S1130620E0580E1C904600284BD043681F2B0DDC6D
S11306305C1C002D21D102339B0044601E5000201D
S11306403CBC90469946A246AB46F8BD224B002BD3
S11306503CD0C820400000E000BF002836D0A422CF
S113066000235200A15843600160A05040328350DF
S1130670043283500124002DDDD09A009146814438
S1130680424688214F467A50C42252009046804404
S113069042468739994012688A460A43944642463C
S11306A061461160842249465F4652008F50022DF4
S11306B0C1D1021C55468D32FF3211680D431560BD
S11306C0B9E7201C4D30FF30E050AEE70120404236
S11306D0B6E7C046E006000000000000430000004A
S11306E018000020F8B5C046F8BC08BC9E46704708
S11306F0AD050000B5000000F8B5C046F8BC08BC64
S10B07009E4670478D000000C5
S113070840420F0048656C6C6F20576F726C640A26
S113071800000000000000000000000004030020A6
S11307286C030020D4030020000000000000000037
S113073800000000000000000000000000000000AD
S1130748000000000000000000000000DC060000BB
S1130758000000000000000000000000000000008D
S1130768000000000000000000000000000000007D
S1130778000000000000000000000000000000006D
S1130788000000000000000000000000000000005D
S1130798000000000000000000000000000000004D
S11307A8000000000000000000000000000000003D
S11307B8000000000000000000000000000000002D
S11307C801000000000000000E33CDAB34126DE6CA
S11307D8ECDE05000B000000000000000000000033
S11307E800000000000000000000000000000000FD
S11307F800000000000000000000000000000000ED
S113080800000000000000000000000000000000DC
S113081800000000000000000000000000000000CC
S9030000FC
