:1000000058080020F1000000ED000000ED000000A5
:1000100000000000000000000000000000000000E0
:10002000000000000000000000000000ED000000E3
:100030000000000000000000ED000000ED000000E6
:10004000ED000000ED000000ED000000ED000000FC
:10005000ED000000ED000000ED00000000000000D9
:10006000ED000000ED000000ED00000000000000C9
:1000700000000000ED000000ED000000ED000000B9
:100080000000000000000000ED00000010B5064C6C
:100090002378002B07D1054B002B02D0044800E049
:1000A00000BF0123237010BD3004002000000000B9
:1000B000C005000008B5084B002B03D007480849CD
:1000C00000E000BF07480368002B00D108BD064BC5
:1000D000002BFBD09847F9E700000000C0050000A6
:1000E00034040020C005000000000000FEE7C04608
:1000F00010B52B4B2B4A9A4203D02B4B284A9A42DD
:1001000004D32A4B2A4A9A4210D31EE0294A264B8E
:1001100003339B1A9B0801339B000022204821498E
:100120008C58845004329A42FAD1EAE7224A1F4B93
:1001300003339B1A9B0801339B0000221C480021BB
:100140001418216004329A42FAD11C4AFF211C4B38
:100150008B439360FD3990235B001A4AD1501A4BB0
:100160009A7B2E318A43111C20220A439A739A7B70
:100170000C218A43111C08220A439A739A7B03219B
:100180008A43111C02220A439A73104A5168802341
:100190000B4353600E4B98470E4B9847FEE7C04603
:1001A00000000020C005000030040020580400209A
:1001B00030040020040000203404002000ED00E0A2
:1001C0000000000000700041004800410040004174
:1001D0001D0400006D030000014A024B1A607047C5
:1001E00040420F000000002070B5040CE2B21F2353
:1001F00013406409E1B2C9010D4CA4466144CC1816
:10020000403426780125354325705B08CB18303300
:100210001C7801210A4091000F228A4094431C70EF
:100220001A780004000C88400243D2B21A7070BDE4
:10023000004400410422134B1A62134A5188134BA5
:100240000B435380026801231343036080235B0048
:100250004360C369002BFCD1A033C360C369002B8A
:10026000FCD10B4A0B4B1A600122C3695B081A428E
:10027000FBD1428B102313434383C369002BFCD172
:100280007047C04600040040000C00400E400000D3
:100290001600300000080042F0B55B000124234343
:1002A0004362438B5B0706D54368C0229202134327
:1002B0004360002024E043689B0C9B044360531E72
:1002C000002B0BDD0D1CCE1828270224C35D2B70DC
:1002D000037E2342FCD00135B542F7D1002A0ED06F
:1002E00043688024E402234343604368C024A4029B
:1002F000234343602823C35C8A18013A13700878AB
:10030000F0BDC04610B5A0240C4317480322438B10
:100310001B091340012B04D0438B1B091340022BF4
:10032000F5D1114B5C62002910D1191C01220B7E02
:100330001A42FCD010E00B7E1A4209D00A4A5368D8
:10034000C02189020B43536000200BE006490122C3
:100350000B7E5B081A42EED0034B588B4007C00F50
:100360000123584010BDC04600080042F0B583B0DC
:100370001D4B98471D4A116A1D4B0B4013621D4AC5
:1003800053688021C9020B4353601B481B4CA04794
:100390001B48A0471B481C4B984700241B4E1C4D74
:1003A0001C4FE0B20021B047002802D001232B707F
:1003B0003C600134662CF4D150200121134B984746
:1003C000144CE4B2124D04350E48291C0822231C9B
:1003D000114FB8476B46DE1DD8710A48291C082208
:1003E000231CB8473070FEE7D90100000008004028
:1003F000FFFCFFFF0040004102000E00E901000089
:1004000002000F0000080042350200000503000052
:100410004C040020540400209902000070B50D4ED9
:100420000D4D0024AD1BAD1005D0A300F3580134D1
:100430009847A542F9D100F0B1F8084E084D0024C4
:10044000AD1BAD1005D0A300F35801349847A54269
:10045000F9D170BDA8050000A8050000A80500009E
:10046000B005000008B5034B002B02D0024800F095
:1004700005F808BD000000008D04000008B5011C4F
:1004800000220020002300F01BF808BD38B5094BFE
:10049000094CE41AA41009D0084AA518AD00ED18BB
:1004A0002B68013C9847043D002CF9D100F080F8FE
:1004B00038BDC046BC050000C0050000FFFFFF3F7F
:1004C000F8B544465F4656464D469B462F4BF0B422
:1004D0001C68A4235B00051CE0580E1C90460028F5
:1004E0004BD043681F2B0DDC5C1C002D21D1023347
:1004F0009B0044601E5000203CBC90469946A2469A
:10050000AB46F8BD224B002B3CD0C820400000E099
:1005100000BF002836D0A42200235200A158436017
:100520000160A05040328350043283500124002DDA
:10053000DDD09A0091468144424688214F467A5048
:10054000C42252009046804442468739994012683E
:100550008A460A43944642466146116084224946CF
:100560005F4652008F50022DC1D1021C55468D327C
:10057000FF3211680D431560B9E7201C4D30FF3084
:10058000E050AEE701204042B6E7C04698050000C3
:10059000000000004300000008000020F8B5C0463D
:1005A000F8BC08BC9E46704765040000B50000001A
:1005B000F8B5C046F8BC08BC9E4670478D000000E8
:1005C00040420F000000000000000000F402002084
:1005D0005C030020C40300200000000000000000B5
:1005E000000000000000000000000000000000000B
:1005F0000000000000000000000000009405000062
:1006000000000000000000000000000000000000EA
:1006100000000000000000000000000000000000DA
:1006200000000000000000000000000000000000CA
:1006300000000000000000000000000000000000BA
:1006400000000000000000000000000000000000AA
:10065000000000000000000000000000000000009A
:10066000000000000000000000000000000000008A
:1006700001000000000000000E33CDAB34126DE627
:10068000ECDE05000B000000000000000000000090
:10069000000000000000000000000000000000005A
:1006A000000000000000000000000000000000004A
:1006B000000000000000000000000000000000003A
:1006C000000000000000000000000000000000002A
:00000001FF
