S0190000454570726F6D5465737432344C433235362E7372656391
S113000060080020F1000000ED000000ED00000099
S113001000000000000000000000000000000000DC
S1130020000000000000000000000000ED000000DF
S11300300000000000000000ED000000ED000000E2
S1130040ED000000ED000000ED000000ED000000F8
S1130050ED000000ED000000ED00000000000000D5
S1130060ED000000ED000000ED00000000000000C5
S113007000000000ED000000ED000000ED000000B5
S11300800000000000000000ED00000010B5064C68
S11300902378002B07D1054B002B02D0044800E045
S11300A000BF0123237010BD4004002000000000A5
S11300B0F8060000084B10B5002B03D00749084888
S11300C000E000BF07480368002B00D110BD064BB9
S11300D0002BFBD09847F9E70000000044040020FF
S11300E0F8060000F806000000000000FEE7C04625
S11300F010B52B4B2B4A9A4203D02B4B284A9A42D9
S113010004D32A4B2A4A9A4210D31EE0294A264B8A
S113011003339B1A9B0801339B000022204821498A
S11301208C58845004329A42FAD1EAE7224A1F4B8F
S113013003339B1A9B0801339B0000221C480021B7
S11301401418216004329A42FAD11C4AFF211C4B34
S11301508B439360FD3990235B001A4AD1501A4BAC
S11301609A7B2E318A43110020220A439A739A7B88
S11301700C218A43110008220A439A739A7B0321B3
S11301808A43110002220A439A73104A5168802359
S11301900B4353600E4B98470E4B9847FEE7C046FF
S11301A000000020F8060000400400206004002045
S11301B040040020040000204404002000ED00E07E
S11301C00000000000700041004800410040004170
S11301D05505000031030000014A024B1A607047C4
S11301E040420F0000000020094A116802230B431B
S11301F01360D3699B07FCD405494B8B302293438E
S1130200102213434B830A00D3695B07FCD4704765
S11302100008004210B540000843124C626AC3B2A1
S1130220D00AC0021843606200290FD12200137E55
S1130230DB07FCD50EE01A7ED20708D5094A5368BD
S1130240C02189020B435360002009E0054B1A7E4C
S11302509207F0D5034B588B4007C00F0123584039
S113026010BDC04600080042054A116801230B4333
S113027013601368DB07FCD4D369DB07F9D4704738
S11302800008004210B50E4A116A04230B4313629E
S11302900C4A0D4B5A800D4B98470D4C1423236088
S11302A00C4B18680C490D4B98470138E268FF2144
S11302B003000B408A4310001843E06010BDC046A1
S11302C0000400400F400000000C004069020000E0
S11302D00008004200000020400D03003D0400001F
S11302E070B5040CE2B21F2313406409E1B2C901E2
S11302F00E4CA4466144CC1840342678012535437D
S113030025705B08C9180B0030331C78012111409B
S113031089000F228A4094431C701C780204120C3A
S11303208A402243D2B21A7070BDC04600440041D4
S113033010B5114B9847114A116A114B0B401362C7
S1130340104A53688021C9020B4353600E480F4C76
S1130350A0470F48A0470F4B98470F4B98470F4BA8
S113036098470F4B19680F480F4B984700215020AE
S11303700E4B9847FEE7C046D90100000008004034
S1130380FFFCFFFF0040004102000E00E1020000FC
S113039002000F00E103000085020000E9010000F3
S11303A05C04002004000020C503000015020000C6
S11303B0034A137EDB07FCD580B2014B18857047D6
S11303C0000C004270B544182078002805D0034D75
S11303D0A847013420780028FAD170BDB103000089
S11303E010B50D480D4CA0470D48A0470D4A116AA1
S11303F008230B4313620C4A0C4B5A800C4B0D4AD6
S11304001A60C02292025A600B4A9A811968022229
S11304100A431A6010BDC04602001900E102000040
S113042002001800000400400F400000000C0040CF
S1130430000C00420400314004C5FFFF00224308C1
S11304408B4274D303098B425FD3030A8B4244D398
S1130450030B8B4228D3030C8B420DD3FF220902DA
S113046012BA030C8B4202D31212090265D0030B99
S11304708B4219D300E0090AC30B8B4201D3CB038F
S1130480C01A5241830B8B4201D38B03C01A5241D1
S1130490430B8B4201D34B03C01A5241030B8B42D3
S11304A001D30B03C01A5241C30A8B4201D3CB02BE
S11304B0C01A5241830A8B4201D38B02C01A5241A3
S11304C0430A8B4201D34B02C01A5241030A8B42A6
S11304D001D30B02C01A5241CDD2C3098B4201D3BE
S11304E0CB01C01A524183098B4201D38B01C01A3C
S11304F0524143098B4201D34B01C01A52410309B3
S11305008B4201D30B01C01A5241C3088B4201D361
S1130510CB00C01A524183088B4201D38B00C01A0E
S1130520524143088B4201D34B00C01A5241411A35
S113053000D20146524110467047FFE701B5002042
S113054000F006F802BDC0460029F7D076E77047F0
S11305507047C04670B50D4E0D4D0024AD1BAD1057
S113056005D0A300F35801349847A542F9D100F00F
S1130570B1F8084E084D0024AD1BAD1005D0A30002
S1130580F35801349847A542F9D170BDE006000044
S1130590E0060000E0060000E8060000034B10B58A
S11305A0002B02D0024800F005F810BD0000000046
S11305B0C505000010B5010000230022002000F052
S11305C01BF810BD70B5094B094CE41AA41009D0EE
S11305D0084AA518AD00ED182B68013C9847043D66
S11305E0002CF9D100F080F870BDC046F40600007C
S11305F0F8060000FFFFFF3FF8B544465F46564645
S11306004D469B462F4BF0B41C68A4235B000500A9
S1130610E0580E00904600284BD043681F2B0DDC99
S11306205C1C002D21D102339B0044601E5000202D
S11306303CBC90469946A246AB46F8BD224B002BE3
S11306403CD0C820400000E000BF002836D0A422DF
S113065000235200A15843600160A05040328350EF
S1130660043283500124002DDDD09A009146814448
S1130670424688214F467A50C42252009046804414
S113068042468739994012688A460A43944642464C
S113069061461160842249465F4652008F50022D04
S11306A0C1D1020055468D32FF3211680D431560E9
S11306B0B9E720004D30FF30E050AEE70120404262
S11306C0B6E7C046D006000000000000430000006A
S11306D018000020F8B5C046F8BC08BC9E46704718
S11306E09D050000B5000000F8B5C046F8BC08BC84
S10B06F09E4670478D000000D6
S11306F840420F0048656C6C6F20576F726C640A37
S113070800000000000000000000000004030020B6
S11307186C030020D4030020000000000000000047
S113072800000000000000000000000000000000BD
S1130738000000000000000000000000CC060000DB
S1130748000000000000000000000000000000009D
S1130758000000000000000000000000000000008D
S1130768000000000000000000000000000000007D
S1130778000000000000000000000000000000006D
S1130788000000000000000000000000000000005D
S1130798000000000000000000000000000000004D
S11307A8000000000000000000000000000000003D
S11307B801000000000000000E33CDAB34126DE6DA
S11307C8ECDE05000B000000000000000000000043
S11307D8000000000000000000000000000000000D
S11307E800000000000000000000000000000000FD
S11307F800000000000000000000000000000000ED
S113080800000000000000000000000000000000DC
S9030000FC
