:1000000090040020F1000000ED000000ED00000071
:1000100000000000000000000000000000000000E0
:10002000000000000000000000000000ED000000E3
:100030000000000000000000ED000000ED000000E6
:10004000ED000000ED000000ED000000ED000000FC
:10005000ED000000ED000000ED00000000000000D9
:10006000ED000000ED00000019020000000000009B
:1000700000000000ED000000ED000000ED000000B9
:100080000000000000000000ED00000010B5064C6C
:100090002378002B07D1054B002B02D0044800E049
:1000A00000BF0123237010BD2000002000000000CD
:1000B0000C050000084B10B5002B03D00749084879
:1000C00000E000BF07480368002B00D110BD064BBD
:1000D000002BFBD09847F9E7000000002400002027
:1000E0000C0500000C05000000000000FEE7000009
:1000F0001D481E4970B5884202D000231C4C03E005
:100100001C4B1D4A002106E0CA18A242F8D2C5586D
:1001100004331560F8E7934201D202C3FBE7FF21E5
:100120000220164B164A8B4393603022154B5862BF
:10013000154B997B9143103A11439973997B143A6B
:100140009143043A1143997303219A7B8A430243F2
:100150009A730E4A7D3153680B4353600C4B98479A
:100160000C4B9847FEE7C0460C050000000000203D
:10017000200000202000002090000020000000004F
:1001800000ED00E0FC7000410048004100400041EB
:10019000A104000031030000184A30B51100012508
:1001A00059310B780F242B430B70130020213C3363
:1001B00018785832204018701878084318700220B8
:1001C0001178294311701A78A2431A7019780C4AD1
:1001D000014319700821136A0B431362094A0A4B41
:1001E0005A800A4B0A4A1A60C02292025A60094A8F
:1001F0009A811A6802431A6030BDC046004400412B
:10020000000400400F400000000C0040000C0042C1
:100210000400314004C5FFFF0121074B1A8D92B243
:10022000187E0842FCD00449D2B20A850222197E07
:100230001142FCD07047C046000C0042034A137EB6
:10024000DB07FCD5014B80B218857047000C0042DB
:100250000123027E1A42FCD0022389B20185027E6C
:100260001A42FCD070470000034A137E5B07FCD59E
:10027000014B188DC0B27047000C004208490A7D3E
:10028000074BD207FBD5198B064A40080A401A8350
:10029000054A4000D8611A801A7DD207FCD5704704
:1002A00000400041E0FEFFFF02A5FFFFF0B5144C47
:1002B000237D134EDB07FBD5124B3380337D104C6F
:1002C000DB07FBD5258B104B40082B4023830023F5
:1002D0004000571E9CB294420DD29CB20D5DBC42B0
:1002E00001DBACB203E00C19647824022C431D1826
:1002F0002C800233EEE7337DDB07FCD5F0BDC04632
:100300000040004144A5FFFFE0FEFFFF10B50024C0
:10031000044B0548E15C054B013498471E2CF7D18E
:1003200010BDC04600000020000C00425102000039
:10033000F7B50622444B1A70444B1B6A1B040BD5BD
:10034000C021434B434AC9001A600B68043383F34E
:100350000888414B99601047404A414B116A0B4055
:10036000802113623F4AC90253680B4353603E4BDE
:1003700098473E4B98473E4FB8473E4B187023284E
:1003800005D150303C4CA0470D20A047F3E765282D
:1003900016D1C023394CDB0023602068384B9842CB
:1003A00005D8384B984723680133FF33F4E7C02260
:1003B000354BD2001A60354B73201A602E4B1DE06E
:1003C00070281DD12C4D0330A84700232B4C0195DC
:1003D000236026682E4D3F2E05D8B8472368A855C0
:1003E00001332360F5E7284C2A4B2068402229007E
:1003F00098477320236840332360019B9847BAE7EE
:100400007628B8D11C4B0338984700231B4C236037
:1004100023683F2BAFD81D4D0D4F2B681E4E19681A
:100420001E483960090AC9B2B0473B681B48190C1D
:10043000C9B2B04739681948090EB0472B68043370
:100440002B6023680133E2E74F4400410044004140
:10045000880000200406000000ED00E000080040D5
:10046000FFFCFFFF00400041990100000D03000068
:10047000690200001D0000203D0200004000002035
:10048000FF3F00007D0200003C00002044000020EF
:1004900048000020AD02000051020000000C0042A4
:1004A0000E4B70B500251E000D4CE41AA410A54299
:1004B00004D0AB00F35898470135F8E700F016F880
:1004C000084B00251E00084CE41AA410A54204D0D5
:1004D000AB00F35898470135F8E770BDF804000009
:1004E000F8040000F8040000FC040000F8B5C04661
:1004F000F8BC08BC9E467047B5000000F8B5C04681
:0C050000F8BC08BC9E4670478D0000004F
:10050C006D696E6953616D642052312E3220626FB9
:10051C006F746C6F616465722056302E310100006F
:00000001FF
