S0170000554152545F426F6F746C6F616465722E7372656367
S113000088040020F1000000ED000000ED00000075
S113001000000000000000000000000000000000DC
S1130020000000000000000000000000ED000000DF
S11300300000000000000000ED000000ED000000E2
S1130040ED000000ED000000ED000000ED000000F8
S1130050ED000000ED000000ED00000000000000D5
S1130060ED000000ED000000390200000000000077
S113007000000000ED000000ED000000ED000000B5
S11300800000000000000000ED00000010B5064C68
S11300902378002B07D1054B002B02D0044800E045
S11300A000BF0123237010BD500000200000000099
S11300B0B405000008B5084B002B03D007480849D5
S11300C000E000BF07480368002B00D108BD064BC1
S11300D0002BFBD09847F9E700000000B4050000AE
S11300E054000020B405000000000000FEE70000FA
S11300F01C481D4910B50023884201D11B4B07E061
S11301001B4CCA18A242F9D2C45804331460F7E74E
S1130110184A934202D2002204C3F9E7FF210220C5
S1130120154B164A8B4393603022154B5862154B7E
S1130130997B9143103A11439973997B143A9143F3
S1130140043A1143997303219A7B8A4302439A73B5
S11301500D4A7D3153680B4353600C4B98470C4B4D
S11301609847FEE7B405000000000020500000207E
S113017050000020880000200000000000ED00E096
S1130180FC70004100480041004000414905000066
S1130190990300000821064A064893685B035B0F35
S11301A09940018093684380138B01207047C046B7
S11301B0004000416C000020184A30B5111C012594
S11301C059310B780F242B430B70131C20213C3323
S11301D01878583220401870187808431870022094
S11301E01178294311701A78A2431A7019780C4AAD
S11301F0014319700821136A0B431362094A0A4B1D
S11302005A800A4B0A4A1A60C02292025A60094A6A
S11302109A811A6802431A6030BDC0460044004106
S1130220000400400F400000000C0040000C00429D
S11302300400314004C5FFFF064B1A8D92B2197EAB
S1130240C907FCD50349D2B20A851A7E9207FCD5A8
S11302507047C046000C0042034B1A7ED207FBD500
S113026080B218857047C046000C0042037EDB074D
S1130270FCD589B20185037E9B07FCD5704700003D
S1130280034B1A7E5207FBD5188DC0B27047C04687
S1130290000C00420D4A138852885A43904213D8E6
S11302A09B00013B18420FD1094B1A7DD207FBD5A5
S11302B0198B084A80080A401A83074A4000D8610B
S11302C01A801A7DD207FCD57047C0466C00002006
S11302D000400041E0FEFFFF02A5FFFFF7B5204C00
S11302E06588238801945D43A84238D85D1E054281
S11302F035D19A4233D81B4B1D7DEC07FBD58026A4
S11303005D68B5435D60184D1D801D7D154EEC077D
S1130310FBD5378B154D40083D4035830025400003
S1130320AEB2964210D2AEB2541E8F5DA64201DB2D
S1130330BEB203E08E19767836023E432F183E8013
S11303400B4E02351E80EBE701990979002903D190
S11303503F2A01D8064A1A801A7DD207FCD5F7BD78
S11303606C0000200040004144A5FFFFE0FEFFFFB9
S113037004A5FFFF10B50024044B0548E15C054BC0
S1130380013498474E2CF7D110BDC0460000002020
S1130390000C00426D0200000621F0B5544A554B92
S11303A011701A6A85B000AF12040CD58020524A2D
S11303B000011168514A11600268043282F308880E
S11303C04F4A9060084780211A68C9010A431A609D
S11303D04C4A13680B4313604B4A4C4B116A0B4055
S11303E0802113624A4AC90253680B435360494B44
S11303F098476A46484B1D88EB1DDB08DB00D31A7F
S11304009D46BB60454B9847454CA047454BFC6017
S11304101870232805D15030434CA0470D20A04725
S1130420F2E7652816D18023404C1B012360206825
S11304303F4B984205D83F4B984723680133FF331D
S1130440F4E780233C4A1B0113603C4A7320136089
S1130450354B1EE070281ED1334E0330B0470023C5
S1130460324C7E6023602668AE4207D2FB68984710
S1130470BB689855236801332360F4E72E4C304B56
S11304802068B9682A1C984773202368EB182360F6
S11304907B689847B8E7762824D1234E0338B047C1
S11304A00023224CFE6023602368AB42ACD280233D
S11304B01B011868214E000A3360C0B2FB689847DC
S11304C033681868FB68000CC0B298473368186832
S11304D0FB68000E984733680433336023680133A4
S11304E02360E1E769288FD1164B98478CE7C04613
S11304F04F440041004400410408000080000020F3
S113050000ED00E01044004100080040FFFCFFFF44
S113051000400041950100006C000020B90100007A
S1130520810200004E0000205902000078000020E3
S1130530FF3F000095020000740000207C000020B2
S1130540DD020000750300000E4B70B500251E1C73
S11305500D4CE41AA410A54204D0AB00F3589847FC
S11305600135F8E700F016F8084B00251E1C084C6E
S1130570E41AA410A54204D0AB00F35898470135FF
S1130580F8E770BDA0050000A0050000A00500006C
S1130590A4050000F8B5C046F8BC08BC9E467047E8
S11305A0B5000000F8B5C046F8BC08BC9E467047CC
S10705B08D000000B6
S11305B46D696E6953616D642052312E320A626F23
S11305C46F746C6F616465722056302E310A446511
S11305D47620426F61726420726567697374657210
S11305E4656420746F204A6572656D7920470A42F8
S11305F46F6172642049442030783030310A01003C
S9030000FC
