S0170000554152545F426F6F746C6F616465722E7372656367
S113000088040020F1000000ED000000ED00000075
S113001000000000000000000000000000000000DC
S1130020000000000000000000000000ED000000DF
S11300300000000000000000ED000000ED000000E2
S1130040ED000000ED000000ED000000ED000000F8
S1130050ED000000ED000000ED00000000000000D5
S1130060ED000000ED000000390200000000000077
S113007000000000ED000000ED000000ED000000B5
S11300800000000000000000ED00000010B5064C68
S11300902378002B07D1054B002B02D0044800E045
S11300A000BF0123237010BD500000200000000099
S11300B0C805000008B5084B002B03D007480849C1
S11300C000E000BF07480368002B00D108BD064BC1
S11300D0002BFBD09847F9E700000000C80500009A
S11300E054000020C805000000000000FEE70000E6
S11300F01C481D4910B50023884201D11B4B07E061
S11301001B4CCA18A242F9D2C45804331460F7E74E
S1130110184A934202D2002204C3F9E7FF210220C5
S1130120154B164A8B4393603022154B5862154B7E
S1130130997B9143103A11439973997B143A9143F3
S1130140043A1143997303219A7B8A4302439A73B5
S11301500D4A7D3153680B4353600C4B98470C4B4D
S11301609847FEE7C805000000000020500000206A
S113017050000020880000200000000000ED00E096
S1130180FC70004100480041004000415D05000052
S11301908D0300000821064A064893685B035B0F41
S11301A09940018093684380138B01207047C046B7
S11301B0004000416C000020184A30B5111C012594
S11301C059310B780F242B430B70131C20213C3323
S11301D01878583220401870187808431870022094
S11301E01178294311701A78A2431A7019780C4AAD
S11301F0014319700821136A0B431362094A0A4B1D
S11302005A800A4B0A4A1A60C02292025A60094A6A
S11302109A811A6802431A6030BDC0460044004106
S1130220000400400F400000000C0040000C00429D
S11302300400314004C5FFFF064B1A8D92B2197EAB
S1130240C907FCD50349D2B20A851A7E9207FCD5A8
S11302507047C046000C0042034B1A7ED207FBD500
S113026080B218857047C046000C0042037EDB074D
S1130270FCD589B20185037E9B07FCD5704700003D
S1130280034B1A7E5207FBD5188DC0B27047C04687
S1130290000C00420D4A138852885A43904213D8E6
S11302A09B00013B18420FD1094B1A7DD207FBD5A5
S11302B0198B084A80080A401A83074A4000D8610B
S11302C01A801A7DD207FCD57047C0466C00002006
S11302D000400041E0FEFFFF02A5FFFFF7B51D4C03
S11302E06588238801945D43A84232D85D1E054287
S11302F02FD19A422DD8184B1D7DEC07FBD5174DF5
S11303001D801D7D144EEC07FBD5378B144D400822
S11303103D40358300254000AEB296420ED2AEB2C7
S1130320541E8F5DA64201DBBEB203E08E197678BF
S113033036023E432F183E800235EDE701990979D4
S1130340002903D13F2A01D8064A1A801A7DD20710
S1130350FCD5F7BD6C0000200040004144A5FFFF20
S1130360E0FEFFFF04A5FFFF10B50024044B054881
S1130370E15C054B013498474E2CF7D110BDC046C3
S113038000000020000C00426D0200000621F0B5C0
S11303905A4A5B4B11701A6A85B000AF12040CD52F
S11303A08020584A00011168574A116002680432DB
S11303B082F30888554A9060084780211A68C90169
S11303C00A431A60524A13680B431360514A524B52
S11303D0116A0B4080211362504AC90253680B43CF
S11303E053604F4B98476A464E4B1B88FB6007335C
S11303F0DB08DB00D31A9D46BB604B4B98474B4C44
S1130400A0474B4B7C601870232804D15030494CD2
S1130410A0470D2017E0652819D18023464C1B0105
S113042023602068454B984205D8454B984723687C
S11304300133FF33F4E780237320424A1B01136026
S1130440414A3C4C1360A0470A20A047D7E77028D4
S113045023D10330374EB0470A20B0470023364C2F
S113046023602568FB689D4206D27B689847BB6879
S1130470585523680133F3E7324CB96820681A1CD5
S1130480324B98472268FB680A209B182360B047C8
S11304907320B0470A20B047B1E7762828D1254C0D
S11304A06C38A0477320A0470A20A0470023224CA1
S11304B023602368FA689342A1D2234D124E2B681D
S11304C023481968234B3160090AC9B29847336835
S11304D01F48190CC9B21F4B984731681D4B090EB0
S11304E01B4898472B6804332B6023680133DFE7EC
S11304F0692884D1184B984781E7C0464F4400418E
S113050000440041040800008000002000ED00E0E9
S11305101044004100080040FFFCFFFF0040004180
S1130520950100006C000020B90100008102000068
S11305304E0000205902000078000020FF3F000018
S113054095020000740000207C000020DD02000001
S1130550000C00426D020000690300000E4B70B5F0
S113056000251E1C0D4CE41AA410A54204D0AB00B7
S1130570F35898470135F8E700F016F8084B0025C2
S11305801E1C084CE41AA410A54204D0AB00F35876
S113059098470135F8E770BDB4050000B4050000C4
S11305A0B4050000B8050000F8B5C046F8BC08BCA6
S11305B09E467047B5000000F8B5C046F8BC08BCBC
S10B05C09E4670478D00000007
S11305C86D696E6953616D642052312E320A626F0F
S11305D86F746C6F616465722056302E310A4465FD
S11305E87620426F617264207265676973746572FC
S11305F8656420746F204A6572656D7920470A42E4
S11306086F6172642049442030783030310A010027
S9030000FC
