:1000000088040020F5000000ED000000ED00000075
:1000100000000000000000000000000000000000E0
:10002000000000000000000000000000ED000000E3
:100030000000000000000000ED000000ED000000E6
:10004000ED000000ED000000ED000000ED000000FC
:10005000ED000000ED000000ED00000000000000D9
:10006000ED000000ED0000003D0200000000000077
:1000700000000000ED000000ED000000ED000000B9
:100080000000000000000000ED00000010B5064C6C
:100090002378002B07D1054B002B02D0044800E049
:1000A00000BF0123237010BD50000020000000009D
:1000B000D805000008B5084B002B03D007480849B5
:1000C00000E000BF07480368002B00D108BD064BC5
:1000D000002BFBD09847F9E700000000D80500008E
:1000E00054000020D805000000000000002318473D
:1000F000FCE700001C481D4910B50023884201D1CF
:100100001B4B07E01B4CCA18A242F9D2C458043357
:100110001460F7E7184A934202D2002204C3F9E7B9
:10012000FF210220154B164A8B4393603022154B5A
:100130005862154B997B9143103A11439973997BFF
:10014000143A9143043A1143997303219A7B8A43E9
:1001500002439A730D4A7D3153680B4353600C4B35
:1001600098470C4B9847FEE7D80500000000002098
:1001700050000020500000208800002000000000F7
:1001800000ED00E0FC7000410048004100400041EB
:100190006D0500009D0300000821064A064893688B
:1001A0005B035B0F9940018093684380138B0120B0
:1001B0007047C046004000416C000020184A30B52E
:1001C000111C012559310B780F242B430B70131C84
:1001D00020213C3318785832204018701878084392
:1001E000187002201178294311701A78A2431A70EE
:1001F00019780C4A014319700821136A0B431362E2
:10020000094A0A4B5A800A4B0A4A1A60C0229202D3
:100210005A60094A9A811A6802431A6030BDC04682
:1002200000440041000400400F400000000C00406A
:10023000000C00420400314004C5FFFF064B1A8D3C
:1002400092B2197EC907FCD50349D2B20A851A7E3B
:100250009207FCD57047C046000C0042034B1A7E43
:10026000D207FBD580B218857047C046000C00420B
:10027000037EDB07FCD589B20185037E9B07FCD595
:1002800070470000034B1A7E5207FBD5188DC0B291
:100290007047C046000C00420D4A138852885A43EA
:1002A000904213D89B00013B18420FD1094B1A7D95
:1002B000D207FBD5198B084A80080A401A83074ADF
:1002C0004000D8611A801A7DD207FCD57047C0461D
:1002D0006C00002000400041E0FEFFFF02A5FFFF90
:1002E000F7B5204C6588238801945D43A84238D82F
:1002F0005D1E054235D19A4233D81B4B1D7DEC075C
:10030000FBD580265D68B5435D60184D1D801D7D61
:10031000154EEC07FBD5378B154D40083D40358316
:1003200000254000AEB2964210D2AEB2541E8F5D90
:10033000A64201DBBEB203E08E19767836023E4358
:100340002F183E800B4E02351E80EBE7019909798C
:10035000002903D13F2A01D8064A1A801A7DD20704
:10036000FCD5F7BD6C0000200040004144A5FFFF14
:10037000E0FEFFFF04A5FFFF10B50024044B054875
:10038000E15C054B013498474E2CF7D110BDC046B7
:1003900000000020000C0042710200000621F0B5B0
:1003A0005B4A5C4B11701C6A85B000AF5A495B48D0
:1003B0005B4A240413D580245A4D24012C602568FF
:1003C000043585F30888584DAC6080250C6AED0231
:1003D00004400C6254682C435460544C20478025E0
:1003E0001C68ED012C431C60514C23682B43236097
:1003F0000B6A1840086280215368C9020B4353609E
:100400004C4B98476A464C4B1D88EB1DDB08DB00C4
:10041000D31A9D46BB60494B98477C60484CA04727
:10042000484BFC601870232805D15030464CA0473B
:100430000D20A047F2E765281CD18023434C1B0107
:1004400023602068424B98420BD8424B98477B6808
:100450001A68414B13407A68136023680133FF33F5
:10046000EEE780233D4A1B0113603D4A7320136071
:10047000354B1EE070281ED1334E0330B0470023A9
:10048000324C3E6023602668AE4207D2FB68984734
:10049000BB689855236801332360F4E72F4C314B38
:1004A0002068B9682A1C984773202368EB182360DA
:1004B0003B689847B2E7762824D1234E0338B047EB
:1004C0000023224CFE6023602368AB42A6D2802327
:1004D0001B01234E18683360C0B2FB68984733682D
:1004E0001868FB68000AC0B2984733681868FB6850
:1004F000000CC0B29847336804333360236801337B
:100500002360E1E7692889D1174B984786E7C04601
:100510004F4400410044004100080040FFFCFFFF41
:10052000004000418000002000ED00E032080000A3
:1005300010440041990100006C000020BD01000042
:10054000850200004E0000205D02000078000020BF
:10055000FF3F000099020000FFBFFFFF7400002072
:100560007C000020E1020000790300000E4B70B512
:1005700000251E1C0D4CE41AA410A54204D0AB00AB
:10058000F35898470135F8E700F016F8084B0025B6
:100590001E1C084CE41AA410A54204D0AB00F3586A
:1005A00098470135F8E770BDC4050000C405000098
:1005B000C4050000C8050000F8B5C046F8BC08BC7A
:1005C0009E467047B5000000F8B5C046F8BC08BCB0
:0805D0009E4670478D000000FB
:1005D8006D696E6953616D642052312E320A626F03
:1005E8006F746C6F616465722056302E310A4465F1
:1005F8007620426F617264207265676973746572F0
:10060800656420746F204A6572656D7920470A42D7
:100618006F6172642049442030783030310A01001B
:00000001FF
