S0170000554152545F426F6F746C6F616465722E7372656367
S1130000B8080020F1000000ED000000ED00000041
S113001000000000000000000000000000000000DC
S1130020000000000000000000000000ED000000DF
S11300300000000000000000ED000000ED000000E2
S1130040ED000000ED000000ED000000ED000000F8
S1130050ED000000ED000000ED00000000000000D5
S1130060ED000000ED000000ED00000000000000C5
S113007000000000ED000000ED000000ED000000B5
S11300800000000000000000ED00000010B5064C68
S11300902378002B07D1054B002B02D0044800E045
S11300A000BF0123237010BD800400200000000065
S11300B0F4060000084B10B5002B03D0074908488C
S11300C000E000BF07480368002B00D110BD064BB9
S11300D0002BFBD09847F9E70000000084040020BF
S11300E0F4060000F406000000000000FEE7000033
S11300F01D481E4970B5884202D000231C4C03E001
S11301001C4B1D4A002106E0CA18A242F8D2C55869
S113011004331560F8E7934201D202C3FBE7FF21E1
S11301200220164B164A8B4393603022154B5862BB
S1130130154B997B9143103A11439973997B143A67
S11301409143043A1143997303219A7B8A430243EE
S11301509A730E4A7D3153680B4353600C4B984796
S11301600C4B9847FEE7C046F40600000000002050
S11301708004002080040020B80400200000000057
S113018000ED00E0FC7000410048004100400041E7
S113019051050000C10100008023054A1B011360C2
S11301A0044A19681360044A1160044A13607047D2
S11301B09C040020A8040020B4040020B004002003
S11301C080230621F0B55B4A5B4D5B02AB61117085
S11301D02A6A87B000AF1A420DD08021574B584A83
S11301E01B68090113600B68043383F30888554BBB
S11301F09960136818470824534E6A46B3685B0332
S11302005B0F9C40A3B2FB60E31DDB08DB00D31A49
S11302109D467B614D4B984780232A68DB014C49FE
S11302201A432A600A681A430A604A494A4A086A11
S113023002400A6280217268C9020A4372603B610B
S1130240464DA847464BBD601870232805D1454B41
S113025098470E20444B9847F2E7652811D1802334
S1130260424D1B012B602868414B984206D8414BF4
S1130270210098472B680133FF33F3E7394B984744
S1130280DEE770281CD1374EB0470023374D7E601F
S11302902B602E68B44207D9BB6898477B69985590
S11302A02B6801332B60F4E7334DFA6879692868C9
S11302B0324B98472B681B192B607B68984713E0D7
S11302C0762815D1274B98470023284D2B602B689F
S11302D09C4209D92A4A1368591C11601878224B88
S11302E098472B680133F1E7264B3A691A60A7E770
S11302F06D2802D1244B9847A2E7692805D1581CE0
S11303001A4B1968214B98479AE75E2898D1002325
S11303100826164D2B602B68032B91D81C4B98692B
S1130320114BF040C0B298472B6808360133F6B23F
S11303302B60F0E7504400410044004104080000F1
S1130340B404002000ED00E000400041F50400008A
S11303501044004100080040FFFCFFFF950400002A
S1130360000000206904000055040000A0040020DF
S1130370FF3F0000950300009C040020CD03000013
S1130380B00400201C4400419901000079040000DD
S1130390002000410A490A7D094BD207FBD5198B7D
S11303A0084A0A401A83197D054AC907FBD506493C
S11303B04008D06111801A7DD207FCD57047C04631
S11303C000400041E0FEFFFF02A5FFFFF0B51C4D19
S11303D02C7D1B4BE407FBD580255C68AC435C603B
S11303E0184C1C801C7D164DE407FBD52E8B164C37
S11303F0400834402C83154D0024AC464000571E61
S1130400A5B295420FD2A5B24E5DBD4201DBB5B295
S113041003E04D196D782D02354326183580654665
S113042002341D80ECE70A490978002903D13F2AE8
S113043001D8064A1A801A7DD207FCD5F0BDC04601
S11304400040004144A5FFFFE0FEFFFF04A5FFFFBD
S1130450AC040020034A137EDB07FCD5014B80B2B9
S113046018857047000C004210B57320014B984763
S113047010BDC0465504000010B544180134631E75
S11304801878002802D0024B9847F7E710BDC04601
S113049055040000034A137E5B07FCD5014B188DFD
S11304A0C0B27047000C0042010C70B5CCB24909CF
S11304B0CAB20F491F23D201521801212340D51873
S11304C0CB40D2181300220040352E780A400E4348
S11304D092000E31914080B290402E7030331D78DE
S11304E08D431D7019780843C0B2187070BDC046A2
S11304F00044004110B50D480D4CA0470D48A047DD
S113050008210D4A136A0B4313620C4A0C4B06393B
S11305105A800C4B0C4A1A60C02292025A600B4A51
S11305209A811A680A431A6010BDC0460200190075
S1130530A904000002001800000400400F4000005D
S1130540000C0040000C00420400314004C5FFFFD1
S113055070B50D4E0D4D0024AD1BAD1005D0A3009C
S1130560F35801349847A542F9D100F0B1F8084E88
S1130570084D0024AD1BAD1005D0A300F358013481
S11305809847A542F9D170BDDC060000DC060000E6
S1130590DC060000E4060000034B10B5002B02D07B
S11305A0024800F005F810BD00000000C10500007D
S11305B010B5010000230022002000F01BF810BD3C
S11305C070B5094B094CE41AA41009D0084AA518BF
S11305D0AD00ED182B68013C9847043D002CF9D17F
S11305E000F080F870BDC046F0060000F40600007C
S11305F0FFFFFF3FF8B544465F4656464D469B46CF
S11306002F4BF0B41C68A4235B000500E0580E00D7
S1130610904600284BD043681F2B0DDC5C1C002D3A
S113062021D102339B0044601E5000203CBC904604
S11306309946A246AB46F8BD224B002B3CD0C820BD
S1130640400000E000BF002836D0A422002352005E
S1130650A15843600160A05040328350043283505B
S11306600124002DDDD09A00914681444246882120
S11306704F467A50C42252009046804442468739FD
S1130680994012688A460A4394464246614611607C
S1130690842249465F4652008F50022DC1D1020088
S11306A055468D32FF3211680D431560B9E72000BD
S11306B04D30FF30E050AEE701204042B6E7C0467F
S11306C0CC06000000000000430000005800002099
S11306D0F8B5C046F8BC08BC9E46704799050000B2
S11306E0B5000000F8B5C046F8BC08BC9E4670478B
S10706F08D00000075
S11306F4016D696E6953616D2052312E330A426F64
S11307046F746C6F616465722052312E342E310A19
S113071444657620426F61726420726567697374FC
S11307246572656420746F204A6572656D7920472B
S11307340A426F6172642049442030783030303189
S11307440A00000000000000000000004403002030
S1130754AC0300201404002000000000000000008A
S11307640000000000000000000000000000000081
S1130774000000000000000000000000C8060000A3
S11307840000000000000000000000000000000061
S11307940000000000000000000000000000000051
S11307A40000000000000000000000000000000041
S11307B40000000000000000000000000000000031
S11307C40000000000000000000000000000000021
S11307D40000000000000000000000000000000011
S11307E40000000000000000000000000000000001
S11307F401000000000000000E33CDAB34126DE69E
S1130804ECDE05000B000000000000000000000006
S113081400000000000000000000000000000000D0
S113082400000000000000000000000000000000C0
S113083400000000000000000000000000000000B0
S113084400000000000000000000000000000000A0
S9030000FC
