:1000000090040020F1000000ED000000ED00000071
:1000100000000000000000000000000000000000E0
:10002000000000000000000000000000ED000000E3
:100030000000000000000000ED000000ED000000E6
:10004000ED000000ED000000ED000000ED000000FC
:10005000ED000000ED000000ED00000000000000D9
:10006000ED000000ED000000ED00000000000000C9
:1000700000000000ED000000ED000000ED000000B9
:100080000000000000000000ED00000010B5064C6C
:100090002378002B07D1054B002B02D0044800E049
:1000A00000BF0123237010BD50000020000000009D
:1000B0000406000008B5084B002B03D00748084988
:1000C00000E000BF07480368002B00D108BD064BC5
:1000D000002BFBD09847F9E7000000000406000061
:1000E000540000200406000000000000FEE70000AD
:1000F0001C481D4910B50023884201D11B4B07E065
:100100001B4CCA18A242F9D2C45804331460F7E752
:10011000184A934202D2002204C3F9E7FF210220C9
:10012000154B164A8B4393603022154B5862154B82
:10013000997B9143103A11439973997B143A9143F7
:10014000043A1143997303219A7B8A4302439A73B9
:100150000D4A7D3153680B4353600C4B98470C4B51
:100160009847FEE704060000000000205000002031
:10017000500000208C0000200000000000ED00E096
:10018000FC7000410048004100400041990500001A
:10019000D90100008023054A1B011360044A196835
:1001A0001360044A1160044A136070477000002015
:1001B0007C000020880000208400002010B500246E
:1001C000034BE05C034B013498474E2CF8D110BD33
:1001D000000000204D05000080220620F0B56B4B8A
:1001E0006B4912029A610870196A85B000AF11421A
:1001F0000DD08020674A6849126800010A600268D1
:10020000043282F30888654A90600A681047082221
:10021000634968468C686403640FA240141C92B260
:10022000BA60E21DD208D200821A8020FA60954698
:100230001A68C00102431A605A4A136803431360E4
:10024000594A5A4B106A0340136280224B68D2020B
:1002500013434B60564B9847564DA847564B7D600D
:10026000187023280CD1554B554D1B78002B02D10B
:10027000544B984701E02120A8470D20A847EBE701
:10028000652818D18023504D1B012B6028684F4BE7
:10029000984206D84E4B211C98472B680133FF33F8
:1002A000F3E7464B1B78002B01D1464BD3E7602088
:1002B000434B9847D0E7702826D1404B1B78002B42
:1002C00001D1404B984700233F4D2B602E68A6423A
:1002D00006D27B689847FB6898552B680133F4E792
:1002E0003C4D3D4B2868F968BA6898472B68E3187D
:1002F0002B60324B1B78002B02D1324B98471BE00E
:1003000025202F4B984717E076281AD12B4B1B78C6
:10031000002B01D12B4B984700232B4D2B602B68D2
:10032000A34209D22D4A1368591C11601878244B36
:1003300098472B680133F1E78022294BD2011A60DC
:100340008AE7284B6D2802D0692802D1264B9847AE
:1003500082E77E2803D10122184B1A707CE75E28C1
:1003600000D079E700230826174D2B602B68032B5C
:1003700000D971E71D4B9869114BF040C0B2984706
:100380002B6808360133F6B22B60EFE700440041DA
:100390004F440041040800008800002000ED00E008
:1003A000004000411044004100080040FFFCFFFFF6
:1003B000F1040000850500004E0000206C000020C4
:1003C0004D0500007505000074000020FF3F00008F
:1003D000F1030000700000202504000084000020CC
:1003E0001C44004195010000BD01000000200041B7
:1003F000094B1A7DD207FBD5198B084A0A401A838C
:10040000197D054AC907FBD505494008D06111800F
:100410001A7DD207FCD5704700400041E0FEFFFF87
:1004200002A5FFFFF0B51A4B1C7DE407FBD5802524
:100430005C68AC435C60174C1C801C7D144DE40769
:10044000FBD52E8B144C400834402C8300244000F4
:10045000A5B2954210D2A5B2571E4E5DBD4201DB3A
:10046000B5B203E04D196D782D023543261835805D
:100470000A4D02341D80EBE709490978002903D1B0
:100480003F2A01D8054A1A801A7DD207FCD5F0BD53
:100490000040004144A5FFFFE0FEFFFF04A5FFFF71
:1004A00080000020010C1F2370B5041CC8B249094C
:1004B000C9B20E4AC9018A1801210340D518403536
:1004C0002E7808400E43CB4081000F208840D3187F
:1004D0002E7030331A7882431A70A2B28A40101CF0
:1004E0001D782843C0B2187070BDC046004400415A
:1004F00010B50D480D4CA0470D48A04708210D4AE6
:10050000136A0B4313620C4A0C4B06395A800C4B8E
:100510000C4A1A60C02292025A600B4A9A811A68E9
:100520000A431A6010BDC04602001900A50400006D
:1005300002001800000400400F400000000C0040C2
:10054000000C00420400314004C5FFFF074B1A7E37
:10055000D207FBD5064A1278002A02D00A2800D119
:10056000203082B280B21A8518857047000C004294
:100570006C00002008B57320014B984708BDC046A9
:100580004D050000034B1A7E5207FBD5188DC0B2F3
:100590007047C046000C00420E4B70B500251E1C73
:1005A0000D4CE41AA410A54204D0AB00F3589847B0
:1005B0000135F8E700F016F8084B00251E1C084C22
:1005C000E41AA410A54204D0AB00F35898470135B3
:1005D000F8E770BDF0050000F0050000F005000030
:1005E000F4050000F8B5C046F8BC08BC9E4670474C
:1005F000B5000000F8B5C046F8BC08BC9E46704780
:040600008D00000069
:100604006D696E6953616D642052312E330A626FD5
:100614006F746C6F616465722056312E340A4465C0
:100624007620426F617264207265676973746572C3
:10063400656420746F204A6572656D7920470A42AB
:100644006F6172642049442030783030310A0100EF
:00000001FF
