S01C000053616D4430392D4465765F426C696E6B546573742E73726563FF
S113000050080020F1000000ED000000ED000000A9
S113001000000000000000000000000000000000DC
S1130020000000000000000000000000ED000000DF
S11300300000000000000000ED000000ED000000E2
S1130040ED000000ED000000ED000000ED000000F8
S1130050ED000000ED000000ED00000000000000D5
S1130060ED000000ED000000ED00000000000000C5
S11300700000000075020000ED000000ED0000002B
S11300800000000000000000ED00000010B5064C68
S11300902378002B07D1054B002B02D0044800E045
S11300A000BF0123237010BD3004002000000000B5
S11300B07804000008B5084B002B03D00748084912
S11300C000E000BF07480368002B00D108BD064BC1
S11300D0002BFBD09847F9E70000000078040000EB
S11300E0340400207804000000000000FEE7C0464D
S11300F010B52B4B2B4A9A4203D02B4B284A9A42D9
S113010004D32A4B2A4A9A4210D31EE0294A264B8A
S113011003339B1A9B0801339B000022204821498A
S11301208C58845004329A42FAD1EAE7224A1F4B8F
S113013003339B1A9B0801339B0000221C480021B7
S11301401418216004329A42FAD11C4AFF211C4B34
S11301508B439360FD3990235B001A4AD1501A4BAC
S11301609A7B2E318A43111C20220A439A739A7B6C
S11301700C218A43111C08220A439A739A7B032197
S11301808A43111C02220A439A73104A516880233D
S11301900B4353600E4B98470E4B9847FEE7C046FF
S11301A00000002078040000300400204C040020EB
S11301B030040020040000203404002000ED00E09E
S11301C00000000000700041004800410040004170
S11301D0D50200008D020000014A024B1A607047EC
S11301E040420F00000000200E4A0F4B1A800F4AB5
S11301F0116840230B4313600D4B1988C0229200F1
S11302000A431A8001210B4A1170198802220A43F9
S11302101A801A1CD37BDB09FCD180229201064B85
S11302201A60704712400000020C0040180400409D
S1130230001800420D18004200E100E0002800D13F
S1130240FEE7704710B5094B1B689BB2834205D08B
S1130250064C23680120904083432360012904D184
S11302600348036891408B43036010BD0044004180
S11302701044004180221201024B1A600122024BF9
S11302801A7070471C4400410E18004270B50C4BA4
S113029098470C4B9847012000210B220A4B9847A2
S11302A0094E0A4D0A4C002001210B22B047281C9C
S11302B0A047002001210B22B047281CA047F2E7E9
S11302C0D9010000E901000045020000A0860100F8
S11302D03D02000070B50D4E0D4D0024AD1BAD1058
S11302E005D0A300F35801349847A542F9D100F092
S11302F0B1F8084E084D0024AD1BAD1005D0A30085
S1130300F35801349847A542F9D170BD6004000048
S113031060040000600400006804000008B5034B9A
S1130320002B02D0024800F005F808BD00000000D0
S11303304503000008B5011C00220020002300F042
S11303401BF808BD38B5094B094CE41AA41009D0B0
S1130350084AA518AD00ED182B68013C9847043DE8
S1130360002CF9D100F080F838BDC04674040000B8
S113037078040000FFFFFF3FF8B544465F46564649
S11303804D469B462F4BF0B41C68A4235B00051C10
S1130390E0580E1C904600284BD043681F2B0DDC00
S11303A05C1C002D21D102339B0044601E500020B0
S11303B03CBC90469946A246AB46F8BD224B002B66
S11303C03CD0C820400000E000BF002836D0A42262
S11303D000235200A15843600160A0504032835072
S11303E0043283500124002DDDD09A0091468144CB
S11303F0424688214F467A50C42252009046804497
S113040042468739994012688A460A4394464246CE
S113041061461160842249465F4652008F50022D86
S1130420C1D1021C55468D32FF3211680D4315604F
S1130430B9E7201C4D30FF30E050AEE701204042C8
S1130440B6E7C0465004000000000000430000006E
S113045008000020F8B5C046F8BC08BC9E467047AA
S11304601D030000B5000000F8B5C046F8BC08BC88
S10B04709E4670478D00000058
S113047840420F000000000000000000F4020020C9
S11304885C030020C40300200000000000000000FA
S11304980000000000000000000000000000000050
S11304A80000000000000000000000004C040000F0
S11304B80000000000000000000000000000000030
S11304C80000000000000000000000000000000020
S11304D80000000000000000000000000000000010
S11304E80000000000000000000000000000000000
S11304F800000000000000000000000000000000F0
S113050800000000000000000000000000000000DF
S113051800000000000000000000000000000000CF
S113052801000000000000000E33CDAB34126DE66C
S1130538ECDE05000B0000000000000000000000D5
S1130548000000000000000000000000000000009F
S1130558000000000000000000000000000000008F
S1130568000000000000000000000000000000007F
S1130578000000000000000000000000000000006F
S9030000FC
