:1000000090040020F5000000ED000000ED0000006D
:1000100000000000000000000000000000000000E0
:10002000000000000000000000000000ED000000E3
:100030000000000000000000ED000000ED000000E6
:10004000ED000000ED000000ED000000ED000000FC
:10005000ED000000ED000000ED00000000000000D9
:10006000ED000000ED000000ED00000000000000C9
:1000700000000000ED000000ED000000ED000000B9
:100080000000000000000000ED00000010B5064C6C
:100090002378002B07D1054B002B02D0044800E049
:1000A00000BF0123237010BD50000020000000009D
:1000B0009C050000084B10B5002B03D007490848E9
:1000C00000E000BF07480368002B00D110BD064BBD
:1000D000002BFBD09847F9E70000000054000020F7
:1000E0009C0500009C05000000000000002318474C
:1000F000FDE700001D481E4970B5884202D000236C
:100100001C4C03E01C4B1D4A002106E0CA18A24209
:10011000F8D2C55804331560F8E7934201D202C300
:10012000FBE7FF210220164B164A8B4393603022D7
:10013000154B5862154B997B9143103A11439973B3
:10014000997B143A9143043A1143997303219A7BA2
:100150008A4302439A730E4A7D3153680B435360BE
:100160000C4B98470C4B9847FEE7C0469C05000097
:1001700000000020500000205000002090000020CF
:100180000000000000ED00E0FC700041004800416C
:100190000040004131050000890300000821064AA3
:1001A000064893685B035B0F994001809368438026
:1001B000138B01207047C046004000416C000020B6
:1001C000184A30B51100012559310B780F242B4303
:1001D0000B70130020213C331878583220401870DF
:1001E00018780843187002201178294311701A7882
:1001F000A2431A7019780C4A014319700821136A36
:100200000B431362094A0A4B5A800A4B0A4A1A6086
:10021000C02292025A60094A9A811A6802431A60FF
:1002200030BDC04600440041000400400F400000C3
:10023000000C0040000C00420400314004C5FFFFE8
:1002400010B5094C084B217E1A00C907FAD5074999
:100250000978002902D180B2188504E00A2800D16B
:10026000203080B2108510BD000C004272000020CA
:10027000034A137E5B07FCD5014B188DC0B2704753
:10028000000C00420A490A7D094BD207FBD5198BA5
:10029000084A0A401A83197D054AC907FBD5064951
:1002A0004008D06111801A7DD207FCD57047C04646
:1002B00000400041E0FEFFFF02A5FFFFF0B51C4D2E
:1002C0002C7D1B4BE407FBD580255C68AC435C6050
:1002D000184C1C801C7D164DE407FBD52E8B164C4C
:1002E000400834402C83154D0024AC464000571E76
:1002F000A5B295420FD2A5B24E5DBD4201DBB5B2AB
:1003000003E04D196D782D0235432618358065467A
:1003100002341D80ECE70A490979002903D13F2AFC
:1003200001D8064A1A801A7DD207FCD5F0BDC04616
:100330000040004144A5FFFFE0FEFFFF04A5FFFFD2
:100340006C0000208023054A1B011360044A1968D1
:100350001360044A1160044A13607047740000205F
:1003600080000020880000208400002010B50024B8
:10037000034BE05C034B013498474E2CF8D110BD81
:1003800000000020410200000621F0B54F4A504B0A
:1003900011701A6A85B000AF12040DD580204D4A45
:1003A0004D49126800010A600268043282F308882D
:1003B0004A4A90600A68104780251A68ED012A436E
:1003C0001A60474A13682B431360464A464B116A2A
:1003D0000B4080211362454AC90253680B435360A6
:1003E000434B9847434B98476A46434B3D601C88B4
:1003F000E31DDB08DB00D31A9D46FB603F4DA84799
:100400003F4BBD601870232805D150303D4DA847A3
:100410000D20A847F2E7652812D180233A4D1B0131
:100420002B602868394B984206D8394B21009847F1
:100430002B680133FF33F3E77320324B9847DDE736
:10044000702821D12F4E0330B04700232E4D7E60FF
:100450002B602E68B44207D9BB689847FB68985553
:100460002B6801332B60F4E72A4D2200F9682868D5
:10047000294B98472B6873201B192B607B68984782
:10048000264B3A681A60B9E7762811D103381D4E19
:10049000B04700231C4D2B602B689C42AED9204AEC
:1004A0001368591C11601878B0472B680133F2E7C4
:1004B0001C4B6D2802D0692802D11B4B98479DE741
:1004C0007E289BD10122194B1A7097E74F440041B7
:1004D00000440041040800008800002000ED00E016
:1004E0001044004100080040FFFCFFFF00400041B5
:1004F0009D010000C10100006C000020710200009D
:100500004E0000204102000078000020FF3F000064
:100510008502000074000020BD0200001C44004160
:1005200084000020450300006D03000072000020DD
:100530000E4B70B500251E000D4CE41AA410A54208
:1005400004D0AB00F35898470135F8E700F016F8EF
:10055000084B00251E00084CE41AA410A54204D044
:10056000AB00F35898470135F8E770BD88050000E7
:1005700088050000880500008C050000F8B5C0461D
:10058000F8BC08BC9E467047B5000000F8B5C046F0
:0C059000F8BC08BC9E4670478D000000BF
:10059C006D696E6953616D642052312E330A626F3E
:1005AC006F746C6F616465722056312E320A44652B
:1005BC007620426F6172642072656769737465722C
:1005CC00656420746F204A6572656D7920470A4214
:1005DC006F6172642049442030783030310A010058
:00000001FF
