S0170000554152545F426F6F746C6F616465722E7372656367
S113000040040020F1000000ED000000ED000000BD
S113001000000000000000000000000000000000DC
S1130020000000000000000000000000ED000000DF
S11300300000000000000000ED000000ED000000E2
S1130040ED000000ED000000ED000000ED000000F8
S1130050ED000000ED000000ED00000000000000D5
S1130060ED000000ED000000ED00000000000000C5
S113007000000000ED000000ED000000ED000000B5
S11300800000000000000000ED00000010B5064C68
S11300902378002B07D1054B002B02D0044800E045
S11300A000BF0123237010BD0400002000000000E5
S11300B08005000008B5084B002B03D00748084909
S11300C000E000BF07480368002B00D108BD064BC1
S11300D0002BFBD09847F9E70000000080050000E2
S11300E0080000208005000000000000FEE700007A
S11300F01C481D4910B50023884201D11B4B07E061
S11301001B4CCA18A242F9D2C45804331460F7E74E
S1130110184A934202D2002204C3F9E7FF210220C5
S1130120154B164A8B4393603022154B5862154B7E
S1130130997B9143103A11439973997B143A9143F3
S1130140043A1143997303219A7B8A4302439A73B5
S11301500D4A7D3153680B4353600C4B98470C4B4D
S11301609847FEE7800500000000002004000020FE
S1130170040000203C0000200000000000ED00E02E
S1130180FC7000410048004100400041150500009A
S1130190BD0100008023054A1B011360044A19684D
S11301A01360044A1160044A136070472000002061
S11301B02C00002038000020340000208023062179
S11301C0F0B5584A584D5B02AB6111702A6A85B08C
S11301D000AF1A420DD08021544B554A1B680901C7
S11301E013600B68043383F30888524B99601368D7
S11301F018470823504E6A46B4686403640FA3404A
S11302001C1C9BB2BB60E31DDB08DB00D31A9D46BC
S1130210FB604A4B984780212A68C9010A432A6037
S1130220474A13680B431360464A474B116A0B4015
S1130230136280227368D20213437360434DA8474C
S1130240434B7D601870232805D1424B98470E20FC
S1130250414B9847F2E7652811D180233F4D1B019C
S11302602B6028683E4B984206D83E4B211C984789
S11302702B680133FF33F3E7364B9847DEE77028EA
S11302801CD1344EB0470023344D3E602B602E68A1
S1130290A64207D27B689847FB6898552B680133C0
S11302A02B60F4E7304DF9682868BA682F4B9847FB
S11302B02B68E3182B603B68984713E0762816D127
S11302C0244B98470023254D2B602B68A34209D269
S11302D0274A1368591C116018781F4B98472B68DC
S11302E00133F1E78022234BD2011A60A6E76D287F
S11302F002D1214B9847A1E75E289FD1002308260D
S1130300164D2B602B68032B98D81C4B9869124B05
S1130310F040C0B298472B6808360133F6B22B6020
S1130320F0E7C04650440041004400410408000086
S11303303800002000ED00E000400041B904000056
S11303401044004100080040FFFCFFFF5904000076
S113035000000020490400003504000024000020AF
S1130360FF3F00008103000020000020B5030000CF
S1130370340000201C44004195010000002000418D
S1130380094B1A7DD207FBD5198B084A0A401A83F8
S1130390197D054AC907FBD505494008D06111807C
S11303A01A7DD207FCD5704700400041E0FEFFFFF4
S11303B002A5FFFFF0B51A4B1C7DE407FBD5802591
S11303C05C68AC435C60174C1C801C7D144DE407D6
S11303D0FBD52E8B144C400834402C830024400061
S11303E0A5B2954210D2A5B2571E4E5DBD4201DBA7
S11303F0B5B203E04D196D782D02354326183580CA
S11304000A4D02341D80EBE709490978002903D11C
S11304103F2A01D8054A1A801A7DD207FCD5F0BDBF
S11304200040004144A5FFFFE0FEFFFF04A5FFFFDD
S113043030000020034B1A7ED207FBD580B218850A
S11304407047C046000C004208B57320014B984722
S113045008BDC04635040000034B1A7E5207FBD585
S1130460188DC0B27047C046000C0042010C1F2317
S113047070B5041CC8B24909C9B20E4AC9018A1828
S113048001210340D51840352E7808400E43CB4057
S113049081000F208840D3182E7030331A7882439D
S11304A01A70A2B28A40101C1D782843C0B218707A
S11304B070BDC0460044004110B50D480D4CA04726
S11304C00D48A04708210D4A136A0B4313620C4AD6
S11304D00C4B06395A800C4B0C4A1A60C02292020B
S11304E05A600B4A9A811A680A431A6010BDC046C2
S11304F0020019006D04000002001800000400400E
S11305000F400000000C0040000C00420400314089
S113051004C5FFFF0E4B70B500251E1C0D4CE41ADC
S1130520A410A54204D0AB00F35898470135F8E76E
S113053000F016F8084B00251E1C084CE41AA41001
S1130540A54204D0AB00F35898470135F8E770BDD5
S11305506C0500006C0500006C05000070050000CF
S1130560F8B5C046F8BC08BC9E467047B50000000C
S1130570F8B5C046F8BC08BC9E4670478D00000024
S10705800100000072
S9030000FC
