:1000000088040020F5000000ED000000ED00000075
:1000100000000000000000000000000000000000E0
:10002000000000000000000000000000ED000000E3
:100030000000000000000000ED000000ED000000E6
:10004000ED000000ED000000ED000000ED000000FC
:10005000ED000000ED000000ED00000000000000D9
:10006000ED000000ED0000003D0200000000000077
:1000700000000000ED000000ED000000ED000000B9
:100080000000000000000000ED00000010B5064C6C
:100090002378002B07D1054B002B02D0044800E049
:1000A00000BF0123237010BD50000020000000009D
:1000B000DC05000008B5084B002B03D007480849B1
:1000C00000E000BF07480368002B00D108BD064BC5
:1000D000002BFBD09847F9E700000000DC0500008A
:1000E00054000020DC050000000000000023184739
:1000F000FCE700001C481D4910B50023884201D1CF
:100100001B4B07E01B4CCA18A242F9D2C458043357
:100110001460F7E7184A934202D2002204C3F9E7B9
:10012000FF210220154B164A8B4393603022154B5A
:100130005862154B997B9143103A11439973997BFF
:10014000143A9143043A1143997303219A7B8A43E9
:1001500002439A730D4A7D3153680B4353600C4B35
:1001600098470C4B9847FEE7DC0500000000002094
:1001700050000020500000208800002000000000F7
:1001800000ED00E0FC7000410048004100400041EB
:1001900071050000A10300000821064A0648936883
:1001A0005B035B0F9940018093684380138B0120B0
:1001B0007047C046004000416C000020184A30B52E
:1001C000111C012559310B780F242B430B70131C84
:1001D00020213C3318785832204018701878084392
:1001E000187002201178294311701A78A2431A70EE
:1001F00019780C4A014319700821136A0B431362E2
:10020000094A0A4B5A800A4B0A4A1A60C0229202D3
:100210005A60094A9A811A6802431A6030BDC04682
:1002200000440041000400400F400000000C00406A
:10023000000C00420400314004C5FFFF064B1A8D3C
:1002400092B2197EC907FCD50349D2B20A851A7E3B
:100250009207FCD57047C046000C0042034B1A7E43
:10026000D207FBD580B218857047C046000C00420B
:10027000037EDB07FCD589B20185037E9B07FCD595
:1002800070470000034B1A7E5207FBD5188DC0B291
:100290007047C046000C0042094B1A7DD207FBD5BF
:1002A000198B084A0A401A83197D054AC907FBD5EC
:1002B00005494008D06111801A7DD207FCD57047EE
:1002C00000400041E0FEFFFF02A5FFFFF0B51A4B22
:1002D0001C7DE407FBD580255C68AC435C60174C53
:1002E0001C801C7D144DE407FBD52E8B144C40085C
:1002F00034402C8300244000A5B2954210D2A5B210
:10030000571E4E5DBD4201DBB5B203E04D196D785D
:100310002D023543261835800A4D02341D80EBE747
:1003200009490979002903D13F2A01D8054A1A80D1
:100330001A7DD207FCD5F0BD0040004144A5FFFF67
:10034000E0FEFFFF04A5FFFF6C000020084B094AF8
:100350001978094B6D2904D18021090119600B68B6
:1003600003E01968081D18604B6813607047C046A9
:100370004E000020800000207C00002010B50024EA
:10038000044B0548E15C054B013498474E2CF7D1EE
:1003900010BDC04600000020000C004271020000A9
:1003A0000621F0B55A4A5B4B11701A6A85B000AF4E
:1003B00012040DD58020584A5849126800010A607D
:1003C0000268043282F30888554A90600A68104730
:1003D00080211A68C9010A431A60524A13680B4304
:1003E0001360514A514B116A0B4080211362504AED
:1003F000C90253680B4353604E4B98474E4B984786
:100400006A464E4B1C88E31DDB08DB00D31A9D4671
:10041000BB604B4DA8474B4BFD601870232805D19E
:100420005030494DA8470D20A847F2E7652818D15C
:100430008023464D1B012B602868454B984206D807
:10044000444B211C98472B680133FF33F3E780238B
:10045000414A1B011360414A732013603A4B98478D
:10046000D7E7702822D1384E0330B0470023374DEC
:100470007E602B602E68A64207D2FB689847BB6857
:1004800098552B6801332B60F4E7334D221C286804
:10049000B968334B98472B687320E3182B607B684F
:1004A000984780222F4BD2011A60B2E7762826D1D6
:1004B000254E0338B0470023244DFE602B602B6887
:1004C000A342A6D2154EFB683068C0B29847306888
:1004D000FB68000AC0B298473068FB68000CC0B2E5
:1004E00098473068FB68000E98471C4A1368191D2E
:1004F0005B68116033602B6801332B60DFE71A4BB8
:100500006D2802D0692884D1184B984781E7C046EE
:100510004F440041004400410408000080000020D6
:1005200000ED00E01044004100080040FFFCFFFF28
:100530000040004199010000BD0100006C00002056
:10054000850200004E0000205D02000078000020BF
:10055000FF3F000099020000740000207C00002092
:10056000CD0200001C4400414D0300007D0300004B
:100570000E4B70B500251E1C0D4CE41AA410A542AC
:1005800004D0AB00F35898470135F8E700F016F8AF
:10059000084B00251E1C084CE41AA410A54204D0E8
:1005A000AB00F35898470135F8E770BDC805000067
:1005B000C8050000C8050000CC050000F8B5C0461D
:1005C000F8BC08BC9E467047B5000000F8B5C046B0
:0C05D000F8BC08BC9E4670478D0000007F
:1005DC006D696E6953616D642052312E330A626FFE
:1005EC006F746C6F616465722056312E300A4465ED
:1005FC007620426F617264207265676973746572EC
:10060C00656420746F204A6572656D7920470A42D3
:10061C006F6172642049442030783030310A010017
:00000001FF
