S011000052312D3154657374732E737265631F
S113080058080020F1080000ED080000ED08000081
S113081000000000000000000000000000000000D4
S1130820000000000000000000000000ED080000CF
S11308300000000000000000ED080000ED080000CA
S1130840ED080000ED080000ED080000ED080000D0
S1130850ED080000ED080000ED08000000000000B5
S1130860ED080000550B00002D0B000000000000F7
S1130870000000003D0A0000ED080000ED08000043
S11308800000000000000000ED08000010B5064C58
S11308902378002B07D1054B002B02D0044800E03D
S11308A000BF0123237010BD3804002000000000A5
S11308B06C19000008B5084B002B03D00748084901
S11308C000E000BF07480368002B00D108BD064BB9
S11308D0002BFBD09847F9E7000000006C190000DA
S11308E03C0400206C19000000000000FEE7C04634
S11308F010B52B4B2B4A9A4203D02B4B284A9A42D1
S113090004D32A4B2A4A9A4210D31EE0294A264B82
S113091003339B1A9B0801339B0000222048214982
S11309208C58845004329A42FAD1EAE7224A1F4B87
S113093003339B1A9B0801339B0000221C480021AF
S11309401418216004329A42FAD11C4AFF211C4B2C
S11309508B439360FD3990235B001A4AD1501A4BA4
S11309609A7B2E318A43111C20220A439A739A7B64
S11309700C218A43111C08220A439A739A7B03218F
S11309808A43111C02220A439A73104A5168802335
S11309900B4353600E4B98470E4B9847FEE7C046F7
S11309A0000000206C1900003804002054040020CA
S11309B038040020040000203C04002000ED00E086
S11309C00008000000700041004800410040004160
S11309D009170000950B0000014A024B1A6070478A
S11309E040420F00000000200E4A0F4B1A800F4AAD
S11309F0116840230B4313600D4B1988C0229200E9
S1130A000A431A8001210B4A1170198802220A43F1
S1130A101A801A1CD37BDB09FCD180229201064B7D
S1130A201A60704712400000020C0040200400408D
S1130A30001800420D18004200E100E08022D201BB
S1130A40024B1A600122024B1A7070471C44004189
S1130A500E18004210B5254B25481A5C01210A43A3
S1130A601A5424481A5C0A431A5459201A5C0A433B
S1130A701A543C229C5C4A38204098549C5C2020A8
S1130A802043985458201C5C21431954995C4938DC
S1130A9081439954985C022101439954164A116A7E
S1130AA008230B431362154A154B5A80154C164BF9
S1130AB02360C0239B026360144B1868144B98474F
S1130AC0011C1448144B9847011CFE208005134B4D
S1130AD098471349134B9847134B984780B2A0810A
S1130AE0226802231343236010BDC0460044004122
S1130AF0C2001800C2001900000400400F400000AA
S1130B00000C0040000C00420400314004000020AE
S1130B105514000000001648450C0000191100008F
S1130B2000FF7F47B50E0000150C0000084B1B8D1D
S1130B3098B2074901220B7E1342FCD0FF230340E5
S1130B40034A1385111C02220B7E1342FCD070470A
S1130B50000C00422823084AD05CC0B2111C0122B8
S1130B600B7E1342FCD02823034AD054111C0222CA
S1130B700B7E1342FCD07047000800420122037E22
S1130B801342FCD089B201850222037E1342FCD0B9
S1130B907047C04638B5194B9847194B9847194ABE
S1130BA013688021C9010B431360174B9847174DF5
S1130BB0281C4821164CA047281C6521A047281C46
S1130BC06C21A047281C6C21A047281C6F21A0473A
S1130BD0281C2021A047281C5721A047281C6F212E
S1130BE0A047281C7221A047281C6C21A047281C60
S1130BF06421A047281C2121A047FEE7D909000051
S1130C00E909000000440041550A0000000C0042BC
S1130C107D0B00009E2110B5C905041C00F092FC58
S1130C20002803D1201C00F0F5FB10BD9E21201CE0
S1130C30C90500F071FA00F0EDFB80231B069C4609
S1130C406044F2E7F0B556464D465F464446F0B47C
S1130C5043024500C70F83B08A465C0A2E0EB9468C
S1130C6041D0FF2E26D080231B042343DC00002325
S1130C7098469B467F3E53465B025D0A53465A00A4
S1130C80DB0F120E9A4639D0FF2A33D080231B047F
S1130C902B43DD0000237F3A5146B21A4646794081
S1130CA0081C01921E430F2E00D976E07E4AB6003E
S1130CB09659B746002C30D108239846063B9B46EC
S1130CC0D9E780230021DB03FF245B02E4055B0AF0
S1130CD0C90723430B43181C03B03CBC90469946F8
S1130CE0A246AB46F0BD002C28D104239846033B12
S1130CF09B46C0E7002D1FD1022302E0002D11D135
S1130D000123B21A50464646784001921E430F2EE4
S1130D1027D86649B60089598F460C239846093B63
S1130D209B46A8E7281C00F017FC7622431F52427A
S1130D309D40121A0023AFE70323ADE7201C00F007
S1130D400BFC431F9C4076235B421E1A00239846EB
S1130D509B4690E70025D1469B465B464846022BBE
S1130D606FD10121FF2401400023AEE77E23019AC5
S1130D705B429B1A1B2B6DDD01214B46194000245D
S1130D800023A2E78023DB031C4249D18023DB0339
S1130D9023435B025B0A391C96E763016D01AB4296
S1130DA037D389461A2001215B1B01241E1C4900EC
S1130DB05B00002E01DBAB4201D35B1B21430138F6
S1130DC00028F3D1581E83410B431D1C019C7F3422
S1130DD0002CCBDD6B0704D00F232B40042B00D059
S1130DE004352B0104D5019A314B8032141C1D406B
S1130DF0FE2C07DD4B460121FF241940002364E744
S1130E00251CAAE701214A46AB015B0AE4B2114062
S1130E105BE7019A8946013A01921B200021C4E74D
S1130E201D4207D023435B025B0A391C4CE70025B3
S1130E306302ABD58023DB032B435B025B0A514681
S1130E4042E7032B25D0012BC0D10121002401400E
S1130E5000233AE7291CD9402B1C019A9E32934067
S1130E605D1EAB410B435A0704D00F221A40042ADB
S1130E7000D004335A0105D54B4601210124194001
S1130E80002322E701214A469B015B0A114000240A
S1130E901BE7802301214A46DB032B435B020A4004
S1130EA05B0A111C10E7C04680180000C01800003F
S1130EB0FFFFFFF7F0B55F4656464D464446F0B493
S1130EC045024600C40F83B00F1C6D0A360EA346BC
S1130ED045D0FF2E25D080231B041D4300239A46B2
S1130EE0ED007F3E01937B025B0A98467800FB0F7E
S1130EF0000E994640D0FF2838D0802342461B0478
S1130F001343DB00984600237F384A46019F30187C
S1130F106240411C1F430F2F69D87D4EBF00F65914
S1130F20B746002D45D108230193063B9A46DAE7DC
S1130F3093465346022B2FD15B46012400251C40C7
S1130F40FF236D02DB056D0AE4071D432543281CBE
S1130F5003B03CBC90469946A246AB46F0BD002D7A
S1130F602CD104230193033B9A46BCE743465A42DF
S1130F7053410322D31AC8E742460123002AC4D0AE
S1130F80404600F0E9FA4246431F9A4076235B420A
S1130F90181A90460023B8E7032B00D1ADE0012BCB
S1130FA000D08CE05B4654461C40E4B2002300258C
S1130FB0C7E70C230193093B9A4694E7281C00F0E9
S1130FC0CBFA7626431F9D4000237642361A0193BE
S1130FD09A4688E780250024ED03FF23B1E74546C0
S1130FE0CB469A46A5E7454693469A46A1E743462B
S1130FF02C041B0C9C46230C444626041C1C360C57
S11310002F0C7443351C66467D4373437743EB18BA
S1131010260C9E19B54203D980235B029C46674483
S113102024043304240C1B199D016C1EA5419B0E42
S1131030360C2B43BD19AD011D432B0104D50123EF
S113104068081D400543081C031C7F33002B2CDD5E
S1131050690704D00F212940042900D0043529014F
S113106003D52C4B1D40031C8033FE2B17DD0124BC
S1131070FF231440002564E78020C003054209D003
S11310804346034206D1454605436D026D0A4C466C
S1131090FF2356E705436D026D0AFF2351E7012440
S11310A0AD016D0ADBB214404BE77E235B421B1A91
S11310B01B2B07DD012400231440002541E7081CF5
S11310C05A46C1E79E30291C8540D940681E854197
S11310D00D436B0704D00F232B40042B00D00435A1
S11310E06B0104D5012401231440002529E70124C0
S11310F0AD016D0A1440002323E78023DB031D4365
S113110001245B466D0223401C1C6D0AFF2318E773
S113111000190000FFFFFFF7F8B54A00430244003E
S11311204D02C00F240E061C9B09120EC90FAD09F7
S1131130FF2A00D175E001277940884250D0A01AD7
S1131140002800DC8FE0002A1ED1002D00D075E0BD
S11311505A0704D00F221A40042A00D004338022F4
S11311600120D2041A403040002A32D00134FF2C2E
S113117000D184E09B015B0AE4B25B02E4055B0AF4
S11311802343C0071843F8BDFF2CE1D08022D204CA
S113119015431B287ADD01255B1B5A015DD59B0194
S11311A09F09381C00F0D8F905388740844269DC6F
S11311B0001B1F243A1C431C201ADA408740131CCE
S11311C07C1EA74100243B43C2E7131E45D10023E4
S11311D00020DB08FF2C28D05B025B0AE4B2CCE7DA
S11311E0A11A00295BDD002A2ED0FF2CB0D080226A
S11311F0D20415431B2974DC2F1C2022CF40511A22
S11312008D40691E8D413D435B195A0125D501343A
S1131210FF2C74D001217E4A194013405B080B4314
S113122096E7002D00D088E785E7002B27D08022A1
S1131230D20313435B025B0AFF249EE701380028B4
S1131240AAD0FF2CA5D183E7002D00D180E7013976
S11312500029D9D0FF2CCDD17AE75A0700D079E7FD
S113126001203040B5E7002825D1621CD2B2012A02
S113127055DD5F1B7A012DD5EF1A0E1C91E7FF2473
S113128000237AE7624B241A3B4061E7291C2022A1
S1131290C140101A8540681E85410D437CE7002932
S11312A046D1621CD1B201292BDDFF2A26D0EB18CE
S11312B05B08141C4CE7002C15D0FF2A1AD080249C
S11312C0E404404223431B284DDD0123EB1A141C84
S11312D00E1C62E7002F00D063E7002300200024E7
S11312E077E7012590E7002B39D0C0430028EDD0E3
S11312F0FF2AE8D12B1CFF240E1C29E7FF2400231E
S113130067E7002C5AD1002B7FD0002D00D11FE7B6
S11313105B195A01A1D53E4A0134134018E7002C49
S113132015D1002B2FD1002D5ED02B1C0E1C0FE7E6
S1131330002C21D1002B54D0C943002904D0FF2A0A
S11313404CD01B2958DD01235B19141C5DE7002BCD
S113135023D1002D4BD02B1C0E1CFF24F8E62B1C94
S1131360141C0E1CF4E61E1C2024C640201A8340C4
S1131370581E83413343A9E7FF2A2FD08024E40475
S113138049422343DDE7002D00D1E1E65A1B500119
S113139000D41AE7EB1A0E1CDAE6FF24002D00D164
S11313A0D6E68022DB08D203134204D0ED081542AE
S11313B001D12B1C0E1CDB00FF24C9E6002B0DD031
S11313C0FF24002D00D1C3E68022DB08D2031342A0
S11313D0F1D0ED081542EED12B1CECE72B1CFF24B9
S11313E0B6E62B1C141CB3E6231C0020F1E6802374
S11313F000209B04FF24ECE61F1C2024CF40611A2C
S11314008B40591E8B413B439EE72B1CA0E6C046F4
S1131410FFFFFFFB4202510A4200C30F120E0020DD
S11314207E2A0DDD9D2A0CDC802000040143952AD0
S11314300ADC9620821AD1400A1C58424240D01835
S11314407047034A9818FBE7963A91400A1CF4E760
S1131450FFFFFF7F10B5041E35D000F07DF89E21FC
S1131460091A962909DC082830DD021C231C083AD5
S113147093405B025B0AC8B220E099290CDD052287
S1131480231C121AD3401A1C031C1B339C40231C1C
S11314905C1EA34113431C1C052801DD431F9C4013
S11314A00F4B2340620704D00F221440042C00D0B9
S11314B004335A010ED49B015B0AC8B25B025B0A77
S11314C0C005184310BD00200023F7E763025B0A40
S11314D0C8B2F3E79F21024A091A1340EBE7C0465A
S11314E0FFFFFFFB8446081C6146FFE71FB500F0C1
S11314F0C5F8002801D40021C8421FBD10B500F072
S113150049F84042013010BD10B500F0B7F800288A
S113151001DB002010BD012010BDC04610B500F055
S1131520ADF8002801DD002010BD012010BDC0462B
S113153010B500F059F8002801DC002010BD01208E
S113154010BDC04610B500F04FF8002801DA0020A5
S113155010BD012010BDC0461C2101231B0498426C
S113156001D3000C10391B0A984201D3000A083930
S11315701B09984201D30009043902A2105C4018E7
S11315807047C0460403020201010101000000008B
S113159000000000430270B542004C005D0AC30F16
S11315A04802120E460A240EC90FFF2A05D0FF2C4A
S11315B008D00120A2420BD070BD0120002DFBD128
S11315C0FF2CF6D10120002EF6D10120A242F3D146
S11315D0B542F1D18B4205D0002AEDD1281C431E1F
S11315E09841E9E70020E7E7F0B543024D024A00DD
S11315F044005E0A240EC30F6D0A120EC90FFF2C9D
S11316000DD0FF2A31D0002C0DD177427741002A2A
S113161023D1002D21D10020002F0BD107E0002E73
S113162028D1FF2A21D0002A05D08B4207D0584266
S113163001231843F0BD002DF9D08B42F7D1944219
S1131640F5DC04DBAE42F2D80020AE42F2D25842BE
S1131650434101205B421843ECE7002FE5D04842A8
S11316604141012049420843E4E7002D02D1002C06
S1131670CBD0DAE702204042DCE7C0464302F0B5B3
S113168042004C005E0AC30F4802120E450A240EA3
S1131690C90FFF2A0FD0FF2C1AD0002A10D177428D
S11316A07741002C29D0002F17D048424141012016
S11316B0494208430BE00220002E08D1FF2C07D03A
S11316C0002C0AD1002D08D1584201231843F0BD43
S11316D00220002DFBD1002AE1D08B42F4D1A2429A
S11316E0F2DC04DBAE42EFD80020AE42EFD2584227
S11316F0434101205B421843E9E7002DD3D1002088
S1131700002FE4D1E0E7C04670B50D4E0D4D002426
S1131710AD1BAD1005D0A300F35801349847A54282
S1131720F9D100F011F9084E084D0024AD1BAD109D
S113173005D0A300F35801349847A542F9D170BDF0
S11317405419000054190000541900005C190000D9
S113175008B5034B002B02D0024800F005F808BD81
S1131760000000007917000008B5011C00220020C9
S1131770002300F01BF808BD38B5094B094CE41AE6
S1131780A41009D0084AA518AD00ED182B68013C37
S11317909847043D002CF9D100F0E0F838BDC0466C
S11317A0681900006C190000FFFFFF3FF8B54446BC
S11317B05F4656464D469B462F4BF0B41C68A42307
S11317C05B00051CE0580E1C904600284BD0436873
S11317D01F2B0DDC5C1C002D21D102339B004460C7
S11317E01E5000203CBC90469946A246AB46F8BD2C
S11317F0224B002B3CD0C820400000E000BF002852
S113180036D0A42200235200A15843600160A050A6
S113181040328350043283500124002DDDD09A00DD
S113182091468144424688214F467A50C422520050
S11318309046804442468739994012688A460A4352
S11318409446424661461160842249465F465200EE
S11318508F50022DC1D1021C55468D32FF321168C2
S11318600D431560B9E7201C4D30FF30E050AEE762
S113187001204042B6E7C0464419000000000000C1
S11318809A0D0000620D00007E0D0000560D000050
S11318907E0D0000C20C00007E0D0000560D0000FD
S11318A0620D0000620D0000C20C0000560D000025
S11318B0000E0000000E0000000E0000840D000069
S11318C0620D0000620D00004A0E0000540D00007D
S11318D04A0E0000C20C00004A0E0000540D000025
S11318E0620D0000620D0000C20C0000540D0000E7
S11318F0000E0000000E0000000E00002E0E00007E
S1131900EE0F0000E60F0000E60F0000DE0F0000FF
S1131910300F0000300F0000D40F0000DE0F000075
S1131920300F0000D40F0000300F0000DE0F000065
S1131930320F0000320F0000320F00007810000058
S11319404300000010000020F8B5C046F8BC08BCF5
S11319509E46704751170000B5080000F8B5C04610
S10F1960F8BC08BC9E4670478D080000CF
S113196C40420F00E9FF0F00FFC10100000000001E
S113197C00000000FC02002064030020CC030020C3
S113198C0000000000000000000000000000000047
S113199C0000000000000000000000000000000037
S11319AC00000000401900000000000000000000CE
S11319BC0000000000000000000000000000000017
S11319CC0000000000000000000000000000000007
S11319DC00000000000000000000000000000000F7
S11319EC00000000000000000000000000000000E7
S11319FC00000000000000000000000000000000D7
S1131A0C00000000000000000000000000000000C6
S1131A1C00000000000000000100000000000000B5
S1131A2C0E33CDAB34126DE6ECDE05000B0000007A
S1131A3C0000000000000000000000000000000096
S1131A4C0000000000000000000000000000000086
S1131A5C0000000000000000000000000000000076
S1131A6C0000000000000000000000000000000066
S9030800F4
